{
  "contractName": "RockPaperScissors",
  "abi": [
    {
      "inputs": [],
      "stateMutability": "nonpayable",
      "type": "constructor"
    },
    {
      "inputs": [],
      "name": "stake",
      "outputs": [
        {
          "internalType": "uint256",
          "name": "",
          "type": "uint256"
        }
      ],
      "stateMutability": "view",
      "type": "function",
      "constant": true
    },
    {
      "inputs": [],
      "name": "join",
      "outputs": [],
      "stateMutability": "payable",
      "type": "function",
      "payable": true
    },
    {
      "inputs": [
        {
          "internalType": "string",
          "name": "_playerChoice",
          "type": "string"
        }
      ],
      "name": "makeChoice",
      "outputs": [],
      "stateMutability": "nonpayable",
      "type": "function"
    },
    {
      "inputs": [],
      "name": "showChoice",
      "outputs": [
        {
          "internalType": "string",
          "name": "",
          "type": "string"
        }
      ],
      "stateMutability": "view",
      "type": "function",
      "constant": true
    },
    {
      "inputs": [],
      "name": "showResult",
      "outputs": [
        {
          "internalType": "uint256",
          "name": "",
          "type": "uint256"
        }
      ],
      "stateMutability": "view",
      "type": "function",
      "constant": true
    },
    {
      "inputs": [],
      "name": "finishGame",
      "outputs": [],
      "stateMutability": "payable",
      "type": "function",
      "payable": true
    },
    {
      "inputs": [],
      "name": "test",
      "outputs": [
        {
          "internalType": "string",
          "name": "",
          "type": "string"
        }
      ],
      "stateMutability": "view",
      "type": "function",
      "constant": true
    },
    {
      "inputs": [],
      "name": "test2",
      "outputs": [
        {
          "internalType": "uint256",
          "name": "",
          "type": "uint256"
        }
      ],
      "stateMutability": "pure",
      "type": "function",
      "constant": true
    },
    {
      "inputs": [],
      "name": "test3",
      "outputs": [
        {
          "internalType": "string",
          "name": "",
          "type": "string"
        }
      ],
      "stateMutability": "view",
      "type": "function",
      "constant": true
    },
    {
      "inputs": [],
      "name": "testChoice",
      "outputs": [
        {
          "internalType": "string",
          "name": "",
          "type": "string"
        }
      ],
      "stateMutability": "view",
      "type": "function",
      "constant": true
    }
  ],
  "bytecode": "0x60806040523480156200001157600080fd5b5060016006604051620000249062000309565b9081526020016040518091039020604051620000409062000309565b90815260200160405180910390208190555060036006604051620000649062000309565b90815260200160405180910390206040516200008090620002f2565b90815260200160405180910390208190555060026006604051620000a49062000309565b9081526020016040518091039020604051620000c090620002db565b90815260200160405180910390208190555060016006604051620000e490620002f2565b90815260200160405180910390206040516200010090620002f2565b908152602001604051809103902081905550600360066040516200012490620002f2565b90815260200160405180910390206040516200014090620002db565b908152602001604051809103902081905550600260066040516200016490620002f2565b9081526020016040518091039020604051620001809062000309565b90815260200160405180910390208190555060016006604051620001a490620002db565b9081526020016040518091039020604051620001c090620002db565b90815260200160405180910390208190555060036006604051620001e490620002db565b9081526020016040518091039020604051620002009062000309565b908152602001604051809103902081905550600260066040516200022490620002db565b90815260200160405180910390206040516200024090620002f2565b908152602001604051809103902081905550662386f26fc10000600581905550620003a6565b60006200027560078362000320565b915062000282826200032b565b600782019050919050565b60006200029c60058362000320565b9150620002a98262000354565b600582019050919050565b6000620002c360048362000320565b9150620002d0826200037d565b600482019050919050565b6000620002e88262000266565b9150819050919050565b6000620002ff826200028d565b9150819050919050565b60006200031682620002b4565b9150819050919050565b600081905092915050565b7f53636973736f7200000000000000000000000000000000000000000000000000600082015250565b7f5061706572000000000000000000000000000000000000000000000000000000600082015250565b7f526f636b00000000000000000000000000000000000000000000000000000000600082015250565b610e5480620003b66000396000f3fe6080604052600436106100915760003560e01c80639fecb69f116100595780639fecb69f1461016d578063ae8a4d3d14610177578063b688a363146101a0578063f6804a60146101aa578063f8a8fd6d146101d557610091565b80630a8e8e011461009657806333ee3131146100c15780633a4b66f1146100ec57806366e41cb7146101175780637c3efa1614610142575b600080fd5b3480156100a257600080fd5b506100ab610200565b6040516100b89190610cf6565b60405180910390f35b3480156100cd57600080fd5b506100d661023d565b6040516100e39190610d18565b60405180910390f35b3480156100f857600080fd5b50610101610281565b60405161010e9190610d18565b60405180910390f35b34801561012357600080fd5b5061012c610287565b6040516101399190610d18565b60405180910390f35b34801561014e57600080fd5b50610157610290565b6040516101649190610cf6565b60405180910390f35b610175610322565b005b34801561018357600080fd5b5061019e60048036038101906101999190610bd3565b610646565b005b6101a8610787565b005b3480156101b657600080fd5b506101bf61086c565b6040516101cc9190610cf6565b60405180910390f35b3480156101e157600080fd5b506101ea6108fe565b6040516101f79190610cf6565b60405180910390f35b60606040518060400160405280600181526020017f6400000000000000000000000000000000000000000000000000000000000000815250905090565b6000600660026040516102509190610cdf565b9081526020016040518091039020600360405161026d9190610cdf565b908152602001604051809103902054905090565b60055481565b60006001905090565b60606002805461029f90610dac565b80601f01602080910402602001604051908101604052809291908181526020018280546102cb90610dac565b80156103185780601f106102ed57610100808354040283529160200191610318565b820191906000526020600020905b8154815290600101906020018083116102fb57829003601f168201915b5050505050905090565b6000600660026040516103359190610cdf565b908152602001604051809103902060036040516103529190610cdf565b908152602001604051809103902054905060018114156104455760008054906101000a900473ffffffffffffffffffffffffffffffffffffffff1673ffffffffffffffffffffffffffffffffffffffff166108fc6005549081150290604051600060405180830381858888f193505050501580156103d4573d6000803e3d6000fd5b50600160009054906101000a900473ffffffffffffffffffffffffffffffffffffffff1673ffffffffffffffffffffffffffffffffffffffff166108fc6005549081150290604051600060405180830381858888f1935050505015801561043f573d6000803e3d6000fd5b5061052f565b60028114156104ba5760008054906101000a900473ffffffffffffffffffffffffffffffffffffffff1673ffffffffffffffffffffffffffffffffffffffff166108fc479081150290604051600060405180830381858888f193505050501580156104b4573d6000803e3d6000fd5b5061052e565b600381141561052d57600160009054906101000a900473ffffffffffffffffffffffffffffffffffffffff1673ffffffffffffffffffffffffffffffffffffffff166108fc479081150290604051600060405180830381858888f1935050505015801561052b573d6000803e3d6000fd5b505b5b5b60008060006101000a81548173ffffffffffffffffffffffffffffffffffffffff021916908373ffffffffffffffffffffffffffffffffffffffff1602179055506000600160006101000a81548173ffffffffffffffffffffffffffffffffffffffff021916908373ffffffffffffffffffffffffffffffffffffffff16021790555060405180602001604052806000815250600290805190602001906105d7929190610a60565b5060405180602001604052806000815250600390805190602001906105fd929190610a60565b506000600460006101000a81548160ff0219169083151502179055506000600460016101000a81548160ff02191690831515021790555067016345785d8a000060058190555050565b60008054906101000a900473ffffffffffffffffffffffffffffffffffffffff1673ffffffffffffffffffffffffffffffffffffffff163373ffffffffffffffffffffffffffffffffffffffff161480156106ae5750600460009054906101000a900460ff16155b156106e5578181600291906106c4929190610ae6565b506001600460006101000a81548160ff021916908315150217905550610783565b600160009054906101000a900473ffffffffffffffffffffffffffffffffffffffff1673ffffffffffffffffffffffffffffffffffffffff163373ffffffffffffffffffffffffffffffffffffffff1614801561074f5750600460019054906101000a900460ff16155b1561078257818160039190610765929190610ae6565b506001600460016101000a81548160ff0219169083151502179055505b5b5050565b600073ffffffffffffffffffffffffffffffffffffffff1660008054906101000a900473ffffffffffffffffffffffffffffffffffffffff1673ffffffffffffffffffffffffffffffffffffffff16141561082857336000806101000a81548173ffffffffffffffffffffffffffffffffffffffff021916908373ffffffffffffffffffffffffffffffffffffffff1602179055503460058190555061086a565b33600160006101000a81548173ffffffffffffffffffffffffffffffffffffffff021916908373ffffffffffffffffffffffffffffffffffffffff1602179055505b565b60606002805461087b90610dac565b80601f01602080910402602001604051908101604052809291908181526020018280546108a790610dac565b80156108f45780601f106108c9576101008083540402835291602001916108f4565b820191906000526020600020905b8154815290600101906020018083116108d757829003601f168201915b5050505050905090565b6060600073ffffffffffffffffffffffffffffffffffffffff1660008054906101000a900473ffffffffffffffffffffffffffffffffffffffff1673ffffffffffffffffffffffffffffffffffffffff161415610992576040518060400160405280600181526020017f61000000000000000000000000000000000000000000000000000000000000008152509050610a5d565b600073ffffffffffffffffffffffffffffffffffffffff1660008054906101000a900473ffffffffffffffffffffffffffffffffffffffff1673ffffffffffffffffffffffffffffffffffffffff161415610a24576040518060400160405280600181526020017f62000000000000000000000000000000000000000000000000000000000000008152509050610a5d565b6040518060400160405280600181526020017f630000000000000000000000000000000000000000000000000000000000000081525090505b90565b828054610a6c90610dac565b90600052602060002090601f016020900481019282610a8e5760008555610ad5565b82601f10610aa757805160ff1916838001178555610ad5565b82800160010185558215610ad5579182015b82811115610ad4578251825591602001919060010190610ab9565b5b509050610ae29190610b6c565b5090565b828054610af290610dac565b90600052602060002090601f016020900481019282610b145760008555610b5b565b82601f10610b2d57803560ff1916838001178555610b5b565b82800160010185558215610b5b579182015b82811115610b5a578235825591602001919060010190610b3f565b5b509050610b689190610b6c565b5090565b5b80821115610b85576000816000905550600101610b6d565b5090565b60008083601f840112610b9b57600080fd5b8235905067ffffffffffffffff811115610bb457600080fd5b602083019150836001820283011115610bcc57600080fd5b9250929050565b60008060208385031215610be657600080fd5b600083013567ffffffffffffffff811115610c0057600080fd5b610c0c85828601610b89565b92509250509250929050565b6000610c2382610d48565b610c2d8185610d53565b9350610c3d818560208601610d79565b610c4681610e0d565b840191505092915050565b60008154610c5e81610dac565b610c688186610d64565b94506001821660008114610c835760018114610c9457610cc7565b60ff19831686528186019350610cc7565b610c9d85610d33565b60005b83811015610cbf57815481890152600182019150602081019050610ca0565b838801955050505b50505092915050565b610cd981610d6f565b82525050565b6000610ceb8284610c51565b915081905092915050565b60006020820190508181036000830152610d108184610c18565b905092915050565b6000602082019050610d2d6000830184610cd0565b92915050565b60008190508160005260206000209050919050565b600081519050919050565b600082825260208201905092915050565b600081905092915050565b6000819050919050565b60005b83811015610d97578082015181840152602081019050610d7c565b83811115610da6576000848401525b50505050565b60006002820490506001821680610dc457607f821691505b60208210811415610dd857610dd7610dde565b5b50919050565b7f4e487b7100000000000000000000000000000000000000000000000000000000600052602260045260246000fd5b6000601f19601f830116905091905056fea2646970667358221220f466f247f8c985bfab240539f7a38ebc556e3331cab57eefc6c33e844172860c64736f6c63430008040033",
  "immutableReferences": {},
  "source": "// SPDX-License-Identifier: MIT\npragma solidity ^0.8.0;\n\ncontract RockPaperScissors {\n\n    // 2 players in the game and each of them make a choice\n    address payable private player1;\n    address payable private player2;\n    string private choiceofPlayer1;\n    string private choiceofPlayer2;\n    bool private hasPlayer1MadeChoice;\n    bool private hasPlayer2MadeChoice;\n\n    //when a player join the game, he has to pay fee;\n    uint256 public stake;\n\n    mapping(string => mapping(string => uint256)) private winner;\n\n    constructor()  {\n        winner['Rock']['Rock'] = 1;\n        winner['Rock']['Paper'] = 3;\n        winner['Rock']['Scissor'] = 2;\n        winner['Paper']['Paper'] = 1;\n        winner['Paper']['Scissor'] = 3;\n        winner['Paper']['Rock'] = 2;\n        winner['Scissor']['Scissor'] = 1;\n        winner['Scissor']['Rock'] = 3;\n        winner['Scissor']['Paper'] = 2;\n\n        stake = 0.01 ether;\n    }\n\n    function join() external payable{\n        //Determine whether there is a free space\n        if(player1 == address(0)){\n            player1 = payable(msg.sender);\n            stake = msg.value;\n        }else{\n            player2 = payable(msg.sender);\n        }\n\n    }\n\n    //value from external should be stored in calldata\n    function makeChoice(string calldata _playerChoice) external {\n        if(msg.sender == player1 && !hasPlayer1MadeChoice){\n            choiceofPlayer1 = _playerChoice;\n            hasPlayer1MadeChoice = true;\n        }else if(msg.sender == player2 && !hasPlayer2MadeChoice){\n            choiceofPlayer2 = _playerChoice;\n            hasPlayer2MadeChoice = true;\n        }\n\n    }\n\n    //show the choice of player\n    function showChoice() public view returns(string memory) {\n        return  choiceofPlayer1;\n    }\n\n    //show the result of game\n    function showResult() external view returns(uint256){\n        return winner[choiceofPlayer1][choiceofPlayer2];\n    }\n\n    //finish the game\n    function finishGame() external payable{\n        uint256 result = winner[choiceofPlayer1][choiceofPlayer2];\n        if(result == 1){\n            player1.transfer(stake);\n            player2.transfer(stake);\n        }else if(result == 2){\n            player1.transfer(address(this).balance);\n        }else if(result == 3){\n            player2.transfer(address(this).balance);\n        }\n\n        //restart the game\n        player1 = payable(address(0));\n        player2 = payable(address(0));\n\n        choiceofPlayer1 = \"\";\n        choiceofPlayer2 = \"\";\n\n        hasPlayer1MadeChoice = false;\n        hasPlayer2MadeChoice = false;\n\n        stake = 0.1 ether;\n\n    }\n\n\n    //test\n    function test() external view returns(string memory){\n        if(player1 == address(0)){\n            return \"a\";\n        }\n\n        if(player1 == payable(address(0))){\n            return \"b\";\n        }else{\n            return \"c\";\n        }\n    }\n\n    function test2() external pure returns(uint256 ){\n        return 1;\n    }\n\n    function test3() public view returns(string memory) {\n        return  \"d\";\n    }\n\n    function testChoice() external view returns(string memory){\n      return choiceofPlayer1;\n    }\n\n\n}",
  "sourcePath": "/Users/hao/Desktop/INFO7500_Material/rock-paper-scissors_dapp_game/contracts/RockPaperScissors.sol",
  "compiler": {
    "name": "solc",
    "version": "0.8.4+commit.c7e474f2.Emscripten.clang"
  },
  "schemaVersion": "3.4.1",
  "updatedAt": "2021-11-16T16:41:28.826Z",
  "networkType": "ethereum",
  "devdoc": {
    "kind": "dev",
    "methods": {},
    "version": 1
  },
  "userdoc": {
    "kind": "user",
    "methods": {},
    "version": 1
  }
}